{
  "contractName": "ProductDapp",
  "abi": [
    {
      "anonymous": false,
      "inputs": [
        {
          "indexed": false,
          "internalType": "uint256",
          "name": "id",
          "type": "uint256"
        },
        {
          "indexed": false,
          "internalType": "string",
          "name": "product_name",
          "type": "string"
        },
        {
          "indexed": false,
          "internalType": "string",
          "name": "product_description",
          "type": "string"
        },
        {
          "indexed": false,
          "internalType": "uint256",
          "name": "product_price",
          "type": "uint256"
        },
        {
          "indexed": false,
          "internalType": "string",
          "name": "upload_image",
          "type": "string"
        },
        {
          "indexed": false,
          "internalType": "bool",
          "name": "sold",
          "type": "bool"
        },
        {
          "indexed": false,
          "internalType": "address",
          "name": "seller",
          "type": "address"
        }
      ],
      "name": "ProductCreated",
      "type": "event"
    },
    {
      "anonymous": false,
      "inputs": [
        {
          "indexed": false,
          "internalType": "uint256",
          "name": "id",
          "type": "uint256"
        },
        {
          "indexed": false,
          "internalType": "string",
          "name": "product_name",
          "type": "string"
        },
        {
          "indexed": false,
          "internalType": "string",
          "name": "product_description",
          "type": "string"
        },
        {
          "indexed": false,
          "internalType": "uint256",
          "name": "product_price",
          "type": "uint256"
        },
        {
          "indexed": false,
          "internalType": "string",
          "name": "upload_image",
          "type": "string"
        },
        {
          "indexed": false,
          "internalType": "bool",
          "name": "sold",
          "type": "bool"
        },
        {
          "indexed": false,
          "internalType": "address",
          "name": "sellers",
          "type": "address"
        }
      ],
      "name": "ProductUpdated",
      "type": "event"
    },
    {
      "anonymous": false,
      "inputs": [
        {
          "indexed": false,
          "internalType": "uint256",
          "name": "id",
          "type": "uint256"
        },
        {
          "indexed": false,
          "internalType": "string",
          "name": "first_name",
          "type": "string"
        },
        {
          "indexed": false,
          "internalType": "string",
          "name": "last_name",
          "type": "string"
        },
        {
          "indexed": false,
          "internalType": "string",
          "name": "name_of_business",
          "type": "string"
        },
        {
          "indexed": false,
          "internalType": "string",
          "name": "email_address",
          "type": "string"
        },
        {
          "indexed": false,
          "internalType": "string",
          "name": "description_of_business",
          "type": "string"
        },
        {
          "indexed": false,
          "internalType": "string",
          "name": "business_address",
          "type": "string"
        },
        {
          "indexed": false,
          "internalType": "address",
          "name": "seller_address",
          "type": "address"
        }
      ],
      "name": "SellerCreated",
      "type": "event"
    },
    {
      "anonymous": false,
      "inputs": [
        {
          "indexed": false,
          "internalType": "uint256",
          "name": "id",
          "type": "uint256"
        },
        {
          "indexed": false,
          "internalType": "string",
          "name": "first_name",
          "type": "string"
        },
        {
          "indexed": false,
          "internalType": "string",
          "name": "last_name",
          "type": "string"
        },
        {
          "indexed": false,
          "internalType": "string",
          "name": "name_of_business",
          "type": "string"
        },
        {
          "indexed": false,
          "internalType": "string",
          "name": "email_address",
          "type": "string"
        },
        {
          "indexed": false,
          "internalType": "string",
          "name": "description_of_business",
          "type": "string"
        },
        {
          "indexed": false,
          "internalType": "string",
          "name": "business_address",
          "type": "string"
        },
        {
          "indexed": false,
          "internalType": "address",
          "name": "seller_address",
          "type": "address"
        }
      ],
      "name": "SellerUpdated",
      "type": "event"
    },
    {
      "constant": true,
      "inputs": [],
      "name": "dapp_builder",
      "outputs": [
        {
          "internalType": "string",
          "name": "",
          "type": "string"
        }
      ],
      "payable": false,
      "stateMutability": "view",
      "type": "function"
    },
    {
      "constant": true,
      "inputs": [],
      "name": "dapp_name",
      "outputs": [
        {
          "internalType": "string",
          "name": "",
          "type": "string"
        }
      ],
      "payable": false,
      "stateMutability": "view",
      "type": "function"
    },
    {
      "constant": true,
      "inputs": [],
      "name": "product_count",
      "outputs": [
        {
          "internalType": "uint256",
          "name": "",
          "type": "uint256"
        }
      ],
      "payable": false,
      "stateMutability": "view",
      "type": "function"
    },
    {
      "constant": true,
      "inputs": [
        {
          "internalType": "uint256",
          "name": "",
          "type": "uint256"
        }
      ],
      "name": "products",
      "outputs": [
        {
          "internalType": "uint256",
          "name": "id",
          "type": "uint256"
        },
        {
          "internalType": "string",
          "name": "product_name",
          "type": "string"
        },
        {
          "internalType": "string",
          "name": "product_description",
          "type": "string"
        },
        {
          "internalType": "uint256",
          "name": "product_price",
          "type": "uint256"
        },
        {
          "internalType": "string",
          "name": "upload_image",
          "type": "string"
        },
        {
          "internalType": "bool",
          "name": "sold",
          "type": "bool"
        },
        {
          "internalType": "address payable",
          "name": "seller",
          "type": "address"
        }
      ],
      "payable": false,
      "stateMutability": "view",
      "type": "function"
    },
    {
      "constant": true,
      "inputs": [],
      "name": "seller_count",
      "outputs": [
        {
          "internalType": "uint256",
          "name": "",
          "type": "uint256"
        }
      ],
      "payable": false,
      "stateMutability": "view",
      "type": "function"
    },
    {
      "constant": true,
      "inputs": [
        {
          "internalType": "uint256",
          "name": "",
          "type": "uint256"
        }
      ],
      "name": "sellers",
      "outputs": [
        {
          "internalType": "uint256",
          "name": "id",
          "type": "uint256"
        },
        {
          "internalType": "string",
          "name": "first_name",
          "type": "string"
        },
        {
          "internalType": "string",
          "name": "last_name",
          "type": "string"
        },
        {
          "internalType": "string",
          "name": "name_of_business",
          "type": "string"
        },
        {
          "internalType": "string",
          "name": "email_address",
          "type": "string"
        },
        {
          "internalType": "string",
          "name": "description_of_business",
          "type": "string"
        },
        {
          "internalType": "string",
          "name": "business_address",
          "type": "string"
        },
        {
          "internalType": "address",
          "name": "seller_address",
          "type": "address"
        }
      ],
      "payable": false,
      "stateMutability": "view",
      "type": "function"
    },
    {
      "constant": false,
      "inputs": [
        {
          "internalType": "string",
          "name": "_first_name",
          "type": "string"
        },
        {
          "internalType": "string",
          "name": "_last_name",
          "type": "string"
        },
        {
          "internalType": "string",
          "name": "_name_of_business",
          "type": "string"
        },
        {
          "internalType": "string",
          "name": "_email_address",
          "type": "string"
        },
        {
          "internalType": "string",
          "name": "_description_of_business",
          "type": "string"
        },
        {
          "internalType": "string",
          "name": "_business_address",
          "type": "string"
        }
      ],
      "name": "createSellerProfile",
      "outputs": [],
      "payable": false,
      "stateMutability": "nonpayable",
      "type": "function"
    },
    {
      "constant": false,
      "inputs": [
        {
          "internalType": "uint256",
          "name": "_id",
          "type": "uint256"
        },
        {
          "internalType": "string",
          "name": "_first_name",
          "type": "string"
        },
        {
          "internalType": "string",
          "name": "_last_name",
          "type": "string"
        },
        {
          "internalType": "string",
          "name": "_name_of_business",
          "type": "string"
        },
        {
          "internalType": "string",
          "name": "_email_address",
          "type": "string"
        },
        {
          "internalType": "string",
          "name": "_description_of_business",
          "type": "string"
        },
        {
          "internalType": "string",
          "name": "_business_address",
          "type": "string"
        },
        {
          "internalType": "address",
          "name": "_seller_address",
          "type": "address"
        }
      ],
      "name": "updateSellerAccount",
      "outputs": [],
      "payable": false,
      "stateMutability": "nonpayable",
      "type": "function"
    },
    {
      "constant": true,
      "inputs": [
        {
          "internalType": "uint256",
          "name": "_id",
          "type": "uint256"
        }
      ],
      "name": "getSingleSeller",
      "outputs": [
        {
          "internalType": "uint256",
          "name": "id",
          "type": "uint256"
        },
        {
          "internalType": "string",
          "name": "",
          "type": "string"
        },
        {
          "internalType": "string",
          "name": "",
          "type": "string"
        },
        {
          "internalType": "string",
          "name": "",
          "type": "string"
        },
        {
          "internalType": "string",
          "name": "",
          "type": "string"
        },
        {
          "internalType": "string",
          "name": "",
          "type": "string"
        },
        {
          "internalType": "string",
          "name": "",
          "type": "string"
        },
        {
          "internalType": "address",
          "name": "",
          "type": "address"
        }
      ],
      "payable": false,
      "stateMutability": "view",
      "type": "function"
    },
    {
      "constant": false,
      "inputs": [
        {
          "internalType": "string",
          "name": "_product_name",
          "type": "string"
        },
        {
          "internalType": "string",
          "name": "_product_description",
          "type": "string"
        },
        {
          "internalType": "uint256",
          "name": "_product_price",
          "type": "uint256"
        },
        {
          "internalType": "string",
          "name": "_upload_image",
          "type": "string"
        }
      ],
      "name": "createProduct",
      "outputs": [],
      "payable": false,
      "stateMutability": "nonpayable",
      "type": "function"
    },
    {
      "constant": false,
      "inputs": [
        {
          "internalType": "uint256",
          "name": "_id",
          "type": "uint256"
        },
        {
          "internalType": "string",
          "name": "_product_name",
          "type": "string"
        },
        {
          "internalType": "string",
          "name": "_product_description",
          "type": "string"
        },
        {
          "internalType": "uint256",
          "name": "_product_price",
          "type": "uint256"
        },
        {
          "internalType": "string",
          "name": "_upload_image",
          "type": "string"
        },
        {
          "internalType": "address payable",
          "name": "_seller",
          "type": "address"
        }
      ],
      "name": "updateProduct",
      "outputs": [],
      "payable": false,
      "stateMutability": "nonpayable",
      "type": "function"
    },
    {
      "constant": true,
      "inputs": [
        {
          "internalType": "uint256",
          "name": "_id",
          "type": "uint256"
        }
      ],
      "name": "get_single_product",
      "outputs": [
        {
          "internalType": "uint256",
          "name": "id",
          "type": "uint256"
        },
        {
          "internalType": "string",
          "name": "",
          "type": "string"
        },
        {
          "internalType": "string",
          "name": "",
          "type": "string"
        },
        {
          "internalType": "uint256",
          "name": "",
          "type": "uint256"
        },
        {
          "internalType": "string",
          "name": "",
          "type": "string"
        },
        {
          "internalType": "bool",
          "name": "",
          "type": "bool"
        },
        {
          "internalType": "address",
          "name": "",
          "type": "address"
        }
      ],
      "payable": false,
      "stateMutability": "view",
      "type": "function"
    },
    {
      "constant": false,
      "inputs": [
        {
          "internalType": "uint256",
          "name": "_id",
          "type": "uint256"
        }
      ],
      "name": "buyProduct",
      "outputs": [],
      "payable": true,
      "stateMutability": "payable",
      "type": "function"
    }
  ],
  "bytecode": "0x60806040526000805560006001556040518060400160405280600581526020017f4453686f70000000000000000000000000000000000000000000000000000000815250600290805190602001906200005a929190620000bd565b506040518060400160405280601281526020017f40476f6f646e657373457a656f6b61666f72000000000000000000000000000081525060039080519060200190620000a8929190620000bd565b50348015620000b657600080fd5b506200016c565b828054600181600116156101000203166002900490600052602060002090601f016020900481019282601f106200010057805160ff191683800117855562000131565b8280016001018555821562000131579182015b828111156200013057825182559160200191906001019062000113565b5b50905062000140919062000144565b5090565b6200016991905b80821115620001655760008160009055506001016200014b565b5090565b90565b61440a806200017c6000396000f3fe6080604052600436106100c25760003560e01c8063b254b0271161007f578063cee26ed511610059578063cee26ed514610e7b578063e1c131c614611185578063e3d8a8f7146113af578063f18ee5a21461176a576100c2565b8063b254b02714610ab6578063b3ea346b14610dc0578063bc9cd3ed14610e50576100c2565b80630419f82d146100c7578063050826f9146104ad57806312c89196146106855780637acc0b20146108855780638642269e14610a5d578063963518cc14610a8b575b600080fd5b3480156100d357600080fd5b506104ab60048036036101008110156100eb57600080fd5b81019080803590602001909291908035906020019064010000000081111561011257600080fd5b82018360208201111561012457600080fd5b8035906020019184600183028401116401000000008311171561014657600080fd5b91908080601f016020809104026020016040519081016040528093929190818152602001838380828437600081840152601f19601f820116905080830192505050505050509192919290803590602001906401000000008111156101a957600080fd5b8201836020820111156101bb57600080fd5b803590602001918460018302840111640100000000831117156101dd57600080fd5b91908080601f016020809104026020016040519081016040528093929190818152602001838380828437600081840152601f19601f8201169050808301925050505050505091929192908035906020019064010000000081111561024057600080fd5b82018360208201111561025257600080fd5b8035906020019184600183028401116401000000008311171561027457600080fd5b91908080601f016020809104026020016040519081016040528093929190818152602001838380828437600081840152601f19601f820116905080830192505050505050509192919290803590602001906401000000008111156102d757600080fd5b8201836020820111156102e957600080fd5b8035906020019184600183028401116401000000008311171561030b57600080fd5b91908080601f016020809104026020016040519081016040528093929190818152602001838380828437600081840152601f19601f8201169050808301925050505050505091929192908035906020019064010000000081111561036e57600080fd5b82018360208201111561038057600080fd5b803590602001918460018302840111640100000000831117156103a257600080fd5b91908080601f016020809104026020016040519081016040528093929190818152602001838380828437600081840152601f19601f8201169050808301925050505050505091929192908035906020019064010000000081111561040557600080fd5b82018360208201111561041757600080fd5b8035906020019184600183028401116401000000008311171561043957600080fd5b91908080601f016020809104026020016040519081016040528093929190818152602001838380828437600081840152601f19601f820116905080830192505050505050509192919290803573ffffffffffffffffffffffffffffffffffffffff1690602001909291905050506117fa565b005b3480156104b957600080fd5b506104e6600480360360208110156104d057600080fd5b8101908080359060200190929190505050611cc8565b60405180888152602001806020018060200187815260200180602001861515151581526020018573ffffffffffffffffffffffffffffffffffffffff1673ffffffffffffffffffffffffffffffffffffffff16815260200184810384528a818151815260200191508051906020019080838360005b8381101561057657808201518184015260208101905061055b565b50505050905090810190601f1680156105a35780820380516001836020036101000a031916815260200191505b50848103835289818151815260200191508051906020019080838360005b838110156105dc5780820151818401526020810190506105c1565b50505050905090810190601f1680156106095780820380516001836020036101000a031916815260200191505b50848103825287818151815260200191508051906020019080838360005b83811015610642578082015181840152602081019050610627565b50505050905090810190601f16801561066f5780820380516001836020036101000a031916815260200191505b509a505050505050505050505060405180910390f35b34801561069157600080fd5b50610883600480360360808110156106a857600080fd5b81019080803590602001906401000000008111156106c557600080fd5b8201836020820111156106d757600080fd5b803590602001918460018302840111640100000000831117156106f957600080fd5b91908080601f016020809104026020016040519081016040528093929190818152602001838380828437600081840152601f19601f8201169050808301925050505050505091929192908035906020019064010000000081111561075c57600080fd5b82018360208201111561076e57600080fd5b8035906020019184600183028401116401000000008311171561079057600080fd5b91908080601f016020809104026020016040519081016040528093929190818152602001838380828437600081840152601f19601f82011690508083019250505050505050919291929080359060200190929190803590602001906401000000008111156107fd57600080fd5b82018360208201111561080f57600080fd5b8035906020019184600183028401116401000000008311171561083157600080fd5b91908080601f016020809104026020016040519081016040528093929190818152602001838380828437600081840152601f19601f820116905080830192505050505050509192919290505050611fb0565b005b34801561089157600080fd5b506108be600480360360208110156108a857600080fd5b810190808035906020019092919050505061242c565b60405180888152602001806020018060200187815260200180602001861515151581526020018573ffffffffffffffffffffffffffffffffffffffff1673ffffffffffffffffffffffffffffffffffffffff16815260200184810384528a818151815260200191508051906020019080838360005b8381101561094e578082015181840152602081019050610933565b50505050905090810190601f16801561097b5780820380516001836020036101000a031916815260200191505b50848103835289818151815260200191508051906020019080838360005b838110156109b4578082015181840152602081019050610999565b50505050905090810190601f1680156109e15780820380516001836020036101000a031916815260200191505b50848103825287818151815260200191508051906020019080838360005b83811015610a1a5780820151818401526020810190506109ff565b50505050905090810190601f168015610a475780820380516001836020036101000a031916815260200191505b509a505050505050505050505060405180910390f35b610a8960048036036020811015610a7357600080fd5b8101908080359060200190929190505050612663565b005b348015610a9757600080fd5b50610aa0612c65565b6040518082815260200191505060405180910390f35b348015610ac257600080fd5b50610aef60048036036020811015610ad957600080fd5b8101908080359060200190929190505050612c6b565b604051808981526020018060200180602001806020018060200180602001806020018873ffffffffffffffffffffffffffffffffffffffff1673ffffffffffffffffffffffffffffffffffffffff16815260200187810387528e818151815260200191508051906020019080838360005b83811015610b7b578082015181840152602081019050610b60565b50505050905090810190601f168015610ba85780820380516001836020036101000a031916815260200191505b5087810386528d818151815260200191508051906020019080838360005b83811015610be1578082015181840152602081019050610bc6565b50505050905090810190601f168015610c0e5780820380516001836020036101000a031916815260200191505b5087810385528c818151815260200191508051906020019080838360005b83811015610c47578082015181840152602081019050610c2c565b50505050905090810190601f168015610c745780820380516001836020036101000a031916815260200191505b5087810384528b818151815260200191508051906020019080838360005b83811015610cad578082015181840152602081019050610c92565b50505050905090810190601f168015610cda5780820380516001836020036101000a031916815260200191505b5087810383528a818151815260200191508051906020019080838360005b83811015610d13578082015181840152602081019050610cf8565b50505050905090810190601f168015610d405780820380516001836020036101000a031916815260200191505b50878103825289818151815260200191508051906020019080838360005b83811015610d79578082015181840152602081019050610d5e565b50505050905090810190601f168015610da65780820380516001836020036101000a031916815260200191505b509e50505050505050505050505050505060405180910390f35b348015610dcc57600080fd5b50610dd5613123565b6040518080602001828103825283818151815260200191508051906020019080838360005b83811015610e15578082015181840152602081019050610dfa565b50505050905090810190601f168015610e425780820380516001836020036101000a031916815260200191505b509250505060405180910390f35b348015610e5c57600080fd5b50610e656131c1565b6040518082815260200191505060405180910390f35b348015610e8757600080fd5b50610eb460048036036020811015610e9e57600080fd5b81019080803590602001909291905050506131c7565b604051808981526020018060200180602001806020018060200180602001806020018873ffffffffffffffffffffffffffffffffffffffff1673ffffffffffffffffffffffffffffffffffffffff16815260200187810387528e818151815260200191508051906020019080838360005b83811015610f40578082015181840152602081019050610f25565b50505050905090810190601f168015610f6d5780820380516001836020036101000a031916815260200191505b5087810386528d818151815260200191508051906020019080838360005b83811015610fa6578082015181840152602081019050610f8b565b50505050905090810190601f168015610fd35780820380516001836020036101000a031916815260200191505b5087810385528c818151815260200191508051906020019080838360005b8381101561100c578082015181840152602081019050610ff1565b50505050905090810190601f1680156110395780820380516001836020036101000a031916815260200191505b5087810384528b818151815260200191508051906020019080838360005b83811015611072578082015181840152602081019050611057565b50505050905090810190601f16801561109f5780820380516001836020036101000a031916815260200191505b5087810383528a818151815260200191508051906020019080838360005b838110156110d85780820151818401526020810190506110bd565b50505050905090810190601f1680156111055780820380516001836020036101000a031916815260200191505b50878103825289818151815260200191508051906020019080838360005b8381101561113e578082015181840152602081019050611123565b50505050905090810190601f16801561116b5780820380516001836020036101000a031916815260200191505b509e50505050505050505050505050505060405180910390f35b34801561119157600080fd5b506113ad600480360360c08110156111a857600080fd5b8101908080359060200190929190803590602001906401000000008111156111cf57600080fd5b8201836020820111156111e157600080fd5b8035906020019184600183028401116401000000008311171561120357600080fd5b91908080601f016020809104026020016040519081016040528093929190818152602001838380828437600081840152601f19601f8201169050808301925050505050505091929192908035906020019064010000000081111561126657600080fd5b82018360208201111561127857600080fd5b8035906020019184600183028401116401000000008311171561129a57600080fd5b91908080601f016020809104026020016040519081016040528093929190818152602001838380828437600081840152601f19601f820116905080830192505050505050509192919290803590602001909291908035906020019064010000000081111561130757600080fd5b82018360208201111561131957600080fd5b8035906020019184600183028401116401000000008311171561133b57600080fd5b91908080601f016020809104026020016040519081016040528093929190818152602001838380828437600081840152601f19601f820116905080830192505050505050509192919290803573ffffffffffffffffffffffffffffffffffffffff1690602001909291905050506135bf565b005b3480156113bb57600080fd5b50611768600480360360c08110156113d257600080fd5b81019080803590602001906401000000008111156113ef57600080fd5b82018360208201111561140157600080fd5b8035906020019184600183028401116401000000008311171561142357600080fd5b91908080601f016020809104026020016040519081016040528093929190818152602001838380828437600081840152601f19601f8201169050808301925050505050505091929192908035906020019064010000000081111561148657600080fd5b82018360208201111561149857600080fd5b803590602001918460018302840111640100000000831117156114ba57600080fd5b91908080601f016020809104026020016040519081016040528093929190818152602001838380828437600081840152601f19601f8201169050808301925050505050505091929192908035906020019064010000000081111561151d57600080fd5b82018360208201111561152f57600080fd5b8035906020019184600183028401116401000000008311171561155157600080fd5b91908080601f016020809104026020016040519081016040528093929190818152602001838380828437600081840152601f19601f820116905080830192505050505050509192919290803590602001906401000000008111156115b457600080fd5b8201836020820111156115c657600080fd5b803590602001918460018302840111640100000000831117156115e857600080fd5b91908080601f016020809104026020016040519081016040528093929190818152602001838380828437600081840152601f19601f8201169050808301925050505050505091929192908035906020019064010000000081111561164b57600080fd5b82018360208201111561165d57600080fd5b8035906020019184600183028401116401000000008311171561167f57600080fd5b91908080601f016020809104026020016040519081016040528093929190818152602001838380828437600081840152601f19601f820116905080830192505050505050509192919290803590602001906401000000008111156116e257600080fd5b8201836020820111156116f457600080fd5b8035906020019184600183028401116401000000008311171561171657600080fd5b91908080601f016020809104026020016040519081016040528093929190818152602001838380828437600081840152601f19601f820116905080830192505050505050509192919290505050613a9a565b005b34801561177657600080fd5b5061177f6141e2565b6040518080602001828103825283818151815260200191508051906020019080838360005b838110156117bf5780820151818401526020810190506117a4565b50505050905090810190601f1680156117ec5780820380516001836020036101000a031916815260200191505b509250505060405180910390f35b611802614280565b600560008a81526020019081526020016000206040518061010001604052908160008201548152602001600182018054600181600116156101000203166002900480601f0160208091040260200160405190810160405280929190818152602001828054600181600116156101000203166002900480156118c45780601f10611899576101008083540402835291602001916118c4565b820191906000526020600020905b8154815290600101906020018083116118a757829003601f168201915b50505050508152602001600282018054600181600116156101000203166002900480601f0160208091040260200160405190810160405280929190818152602001828054600181600116156101000203166002900480156119665780601f1061193b57610100808354040283529160200191611966565b820191906000526020600020905b81548152906001019060200180831161194957829003601f168201915b50505050508152602001600382018054600181600116156101000203166002900480601f016020809104026020016040519081016040528092919081815260200182805460018160011615610100020316600290048015611a085780601f106119dd57610100808354040283529160200191611a08565b820191906000526020600020905b8154815290600101906020018083116119eb57829003601f168201915b50505050508152602001600482018054600181600116156101000203166002900480601f016020809104026020016040519081016040528092919081815260200182805460018160011615610100020316600290048015611aaa5780601f10611a7f57610100808354040283529160200191611aaa565b820191906000526020600020905b815481529060010190602001808311611a8d57829003601f168201915b50505050508152602001600582018054600181600116156101000203166002900480601f016020809104026020016040519081016040528092919081815260200182805460018160011615610100020316600290048015611b4c5780601f10611b2157610100808354040283529160200191611b4c565b820191906000526020600020905b815481529060010190602001808311611b2f57829003601f168201915b50505050508152602001600682018054600181600116156101000203166002900480601f016020809104026020016040519081016040528092919081815260200182805460018160011615610100020316600290048015611bee5780601f10611bc357610100808354040283529160200191611bee565b820191906000526020600020905b815481529060010190602001808311611bd157829003601f168201915b505050505081526020016007820160009054906101000a900473ffffffffffffffffffffffffffffffffffffffff1673ffffffffffffffffffffffffffffffffffffffff1673ffffffffffffffffffffffffffffffffffffffff16815250509050878160200181905250868160400181905250858160600181905250848160800181905250838160a00181905250828160c00181905250818160e0019073ffffffffffffffffffffffffffffffffffffffff16908173ffffffffffffffffffffffffffffffffffffffff1681525050505050505050505050565b600060608060006060600080611cdc6142db565b600460008a81526020019081526020016000206040518060e001604052908160008201548152602001600182018054600181600116156101000203166002900480601f016020809104026020016040519081016040528092919081815260200182805460018160011615610100020316600290048015611d9d5780601f10611d7257610100808354040283529160200191611d9d565b820191906000526020600020905b815481529060010190602001808311611d8057829003601f168201915b50505050508152602001600282018054600181600116156101000203166002900480601f016020809104026020016040519081016040528092919081815260200182805460018160011615610100020316600290048015611e3f5780601f10611e1457610100808354040283529160200191611e3f565b820191906000526020600020905b815481529060010190602001808311611e2257829003601f168201915b5050505050815260200160038201548152602001600482018054600181600116156101000203166002900480601f016020809104026020016040519081016040528092919081815260200182805460018160011615610100020316600290048015611eeb5780601f10611ec057610100808354040283529160200191611eeb565b820191906000526020600020905b815481529060010190602001808311611ece57829003601f168201915b505050505081526020016005820160009054906101000a900460ff161515151581526020016005820160019054906101000a900473ffffffffffffffffffffffffffffffffffffffff1673ffffffffffffffffffffffffffffffffffffffff1673ffffffffffffffffffffffffffffffffffffffff16815250509050806000015181602001518260400151836060015184608001518560a001518660c00151859550849450829250809050975097509750975097509750975050919395979092949650565b6000845111612027576040517f08c379a00000000000000000000000000000000000000000000000000000000081526004018080602001828103825260128152602001807f41646420412050726f64756374204e616d65000000000000000000000000000081525060200191505060405180910390fd5b600083511161209e576040517f08c379a00000000000000000000000000000000000000000000000000000000081526004018080602001828103825260198152602001807f41646420412050726f64756374204465736372697074696f6e0000000000000081525060200191505060405180910390fd5b6000815111612115576040517f08c379a00000000000000000000000000000000000000000000000000000000081526004018080602001828103825260138152602001807f41646420416e2055706c6f616420496d6167650000000000000000000000000081525060200191505060405180910390fd5b60008081548092919060010191905055506040518060e0016040528060005481526020018581526020018481526020018381526020018281526020016000151581526020013373ffffffffffffffffffffffffffffffffffffffff1681525060046000805481526020019081526020016000206000820151816000015560208201518160010190805190602001906121ae929190614330565b5060408201518160020190805190602001906121cb929190614330565b506060820151816003015560808201518160040190805190602001906121f2929190614330565b5060a08201518160050160006101000a81548160ff02191690831515021790555060c08201518160050160016101000a81548173ffffffffffffffffffffffffffffffffffffffff021916908373ffffffffffffffffffffffffffffffffffffffff1602179055509050507f0784bb1ba50e6d44c10f7d52f8e1c2a71400d10a97dabb65cec79b7e1e70d0f36000548585858560003360405180888152602001806020018060200187815260200180602001861515151581526020018573ffffffffffffffffffffffffffffffffffffffff1673ffffffffffffffffffffffffffffffffffffffff16815260200184810384528a818151815260200191508051906020019080838360005b838110156123185780820151818401526020810190506122fd565b50505050905090810190601f1680156123455780820380516001836020036101000a031916815260200191505b50848103835289818151815260200191508051906020019080838360005b8381101561237e578082015181840152602081019050612363565b50505050905090810190601f1680156123ab5780820380516001836020036101000a031916815260200191505b50848103825287818151815260200191508051906020019080838360005b838110156123e45780820151818401526020810190506123c9565b50505050905090810190601f1680156124115780820380516001836020036101000a031916815260200191505b509a505050505050505050505060405180910390a150505050565b6004602052806000526040600020600091509050806000015490806001018054600181600116156101000203166002900480601f0160208091040260200160405190810160405280929190818152602001828054600181600116156101000203166002900480156124de5780601f106124b3576101008083540402835291602001916124de565b820191906000526020600020905b8154815290600101906020018083116124c157829003601f168201915b505050505090806002018054600181600116156101000203166002900480601f01602080910402602001604051908101604052809291908181526020018280546001816001161561010002031660029004801561257c5780601f106125515761010080835404028352916020019161257c565b820191906000526020600020905b81548152906001019060200180831161255f57829003601f168201915b505050505090806003015490806004018054600181600116156101000203166002900480601f0160208091040260200160405190810160405280929190818152602001828054600181600116156101000203166002900480156126205780601f106125f557610100808354040283529160200191612620565b820191906000526020600020905b81548152906001019060200180831161260357829003601f168201915b5050505050908060050160009054906101000a900460ff16908060050160019054906101000a900473ffffffffffffffffffffffffffffffffffffffff16905087565b61266b6142db565b600460008381526020019081526020016000206040518060e001604052908160008201548152602001600182018054600181600116156101000203166002900480601f01602080910402602001604051908101604052809291908181526020018280546001816001161561010002031660029004801561272c5780601f106127015761010080835404028352916020019161272c565b820191906000526020600020905b81548152906001019060200180831161270f57829003601f168201915b50505050508152602001600282018054600181600116156101000203166002900480601f0160208091040260200160405190810160405280929190818152602001828054600181600116156101000203166002900480156127ce5780601f106127a3576101008083540402835291602001916127ce565b820191906000526020600020905b8154815290600101906020018083116127b157829003601f168201915b5050505050815260200160038201548152602001600482018054600181600116156101000203166002900480601f01602080910402602001604051908101604052809291908181526020018280546001816001161561010002031660029004801561287a5780601f1061284f5761010080835404028352916020019161287a565b820191906000526020600020905b81548152906001019060200180831161285d57829003601f168201915b505050505081526020016005820160009054906101000a900460ff161515151581526020016005820160019054906101000a900473ffffffffffffffffffffffffffffffffffffffff1673ffffffffffffffffffffffffffffffffffffffff1673ffffffffffffffffffffffffffffffffffffffff1681525050905060008160c001519050600082600001511180156129195750600054826000015111155b61298b576040517f08c379a00000000000000000000000000000000000000000000000000000000081526004018080602001828103825260108152602001807f4e4f5420412050524f445543542049440000000000000000000000000000000081525060200191505060405180910390fd5b8160600151341015612a05576040517f08c379a000000000000000000000000000000000000000000000000000000000815260040180806020018281038252601b8152602001807f596f7520446f6e2774204861766520456e6f756768204574686572000000000081525060200191505060405180910390fd5b8160a0015115612a7d576040517f08c379a00000000000000000000000000000000000000000000000000000000081526004018080602001828103825260198152602001807f50524f4455435420414c5245414459205055524348415345440000000000000081525060200191505060405180910390fd5b3373ffffffffffffffffffffffffffffffffffffffff168173ffffffffffffffffffffffffffffffffffffffff161415612b1f576040517f08c379a000000000000000000000000000000000000000000000000000000000815260040180806020018281038252601e8152602001807f53656c6c65722043616e277420507572636861736520486973204974656d000081525060200191505060405180910390fd5b60018260a00190151590811515815250508160046000858152602001908152602001600020600082015181600001556020820151816001019080519060200190612b6a929190614330565b506040820151816002019080519060200190612b87929190614330565b50606082015181600301556080820151816004019080519060200190612bae929190614330565b5060a08201518160050160006101000a81548160ff02191690831515021790555060c08201518160050160016101000a81548173ffffffffffffffffffffffffffffffffffffffff021916908373ffffffffffffffffffffffffffffffffffffffff1602179055509050508073ffffffffffffffffffffffffffffffffffffffff166108fc349081150290604051600060405180830381858888f19350505050158015612c5f573d6000803e3d6000fd5b50505050565b60005481565b60006060806060806060806000612c80614280565b600560008b81526020019081526020016000206040518061010001604052908160008201548152602001600182018054600181600116156101000203166002900480601f016020809104026020016040519081016040528092919081815260200182805460018160011615610100020316600290048015612d425780601f10612d1757610100808354040283529160200191612d42565b820191906000526020600020905b815481529060010190602001808311612d2557829003601f168201915b50505050508152602001600282018054600181600116156101000203166002900480601f016020809104026020016040519081016040528092919081815260200182805460018160011615610100020316600290048015612de45780601f10612db957610100808354040283529160200191612de4565b820191906000526020600020905b815481529060010190602001808311612dc757829003601f168201915b50505050508152602001600382018054600181600116156101000203166002900480601f016020809104026020016040519081016040528092919081815260200182805460018160011615610100020316600290048015612e865780601f10612e5b57610100808354040283529160200191612e86565b820191906000526020600020905b815481529060010190602001808311612e6957829003601f168201915b50505050508152602001600482018054600181600116156101000203166002900480601f016020809104026020016040519081016040528092919081815260200182805460018160011615610100020316600290048015612f285780601f10612efd57610100808354040283529160200191612f28565b820191906000526020600020905b815481529060010190602001808311612f0b57829003601f168201915b50505050508152602001600582018054600181600116156101000203166002900480601f016020809104026020016040519081016040528092919081815260200182805460018160011615610100020316600290048015612fca5780601f10612f9f57610100808354040283529160200191612fca565b820191906000526020600020905b815481529060010190602001808311612fad57829003601f168201915b50505050508152602001600682018054600181600116156101000203166002900480601f01602080910402602001604051908101604052809291908181526020018280546001816001161561010002031660029004801561306c5780601f106130415761010080835404028352916020019161306c565b820191906000526020600020905b81548152906001019060200180831161304f57829003601f168201915b505050505081526020016007820160009054906101000a900473ffffffffffffffffffffffffffffffffffffffff1673ffffffffffffffffffffffffffffffffffffffff1673ffffffffffffffffffffffffffffffffffffffff16815250509050806000015181602001518260400151836060015184608001518560a001518660c001518760e001518696508595508494508393508292508191509850985098509850985098509850985050919395975091939597565b60028054600181600116156101000203166002900480601f0160208091040260200160405190810160405280929190818152602001828054600181600116156101000203166002900480156131b95780601f1061318e576101008083540402835291602001916131b9565b820191906000526020600020905b81548152906001019060200180831161319c57829003601f168201915b505050505081565b60015481565b6005602052806000526040600020600091509050806000015490806001018054600181600116156101000203166002900480601f0160208091040260200160405190810160405280929190818152602001828054600181600116156101000203166002900480156132795780601f1061324e57610100808354040283529160200191613279565b820191906000526020600020905b81548152906001019060200180831161325c57829003601f168201915b505050505090806002018054600181600116156101000203166002900480601f0160208091040260200160405190810160405280929190818152602001828054600181600116156101000203166002900480156133175780601f106132ec57610100808354040283529160200191613317565b820191906000526020600020905b8154815290600101906020018083116132fa57829003601f168201915b505050505090806003018054600181600116156101000203166002900480601f0160208091040260200160405190810160405280929190818152602001828054600181600116156101000203166002900480156133b55780601f1061338a576101008083540402835291602001916133b5565b820191906000526020600020905b81548152906001019060200180831161339857829003601f168201915b505050505090806004018054600181600116156101000203166002900480601f0160208091040260200160405190810160405280929190818152602001828054600181600116156101000203166002900480156134535780601f1061342857610100808354040283529160200191613453565b820191906000526020600020905b81548152906001019060200180831161343657829003601f168201915b505050505090806005018054600181600116156101000203166002900480601f0160208091040260200160405190810160405280929190818152602001828054600181600116156101000203166002900480156134f15780601f106134c6576101008083540402835291602001916134f1565b820191906000526020600020905b8154815290600101906020018083116134d457829003601f168201915b505050505090806006018054600181600116156101000203166002900480601f01602080910402602001604051908101604052809291908181526020018280546001816001161561010002031660029004801561358f5780601f106135645761010080835404028352916020019161358f565b820191906000526020600020905b81548152906001019060200180831161357257829003601f168201915b5050505050908060070160009054906101000a900473ffffffffffffffffffffffffffffffffffffffff16905088565b6135c76142db565b600460008881526020019081526020016000206040518060e001604052908160008201548152602001600182018054600181600116156101000203166002900480601f0160208091040260200160405190810160405280929190818152602001828054600181600116156101000203166002900480156136885780601f1061365d57610100808354040283529160200191613688565b820191906000526020600020905b81548152906001019060200180831161366b57829003601f168201915b50505050508152602001600282018054600181600116156101000203166002900480601f01602080910402602001604051908101604052809291908181526020018280546001816001161561010002031660029004801561372a5780601f106136ff5761010080835404028352916020019161372a565b820191906000526020600020905b81548152906001019060200180831161370d57829003601f168201915b5050505050815260200160038201548152602001600482018054600181600116156101000203166002900480601f0160208091040260200160405190810160405280929190818152602001828054600181600116156101000203166002900480156137d65780601f106137ab576101008083540402835291602001916137d6565b820191906000526020600020905b8154815290600101906020018083116137b957829003601f168201915b505050505081526020016005820160009054906101000a900460ff161515151581526020016005820160019054906101000a900473ffffffffffffffffffffffffffffffffffffffff1673ffffffffffffffffffffffffffffffffffffffff1673ffffffffffffffffffffffffffffffffffffffff1681525050905085816020018190525084816040018190525083816060018181525050828160800181905250818160c0019073ffffffffffffffffffffffffffffffffffffffff16908173ffffffffffffffffffffffffffffffffffffffff16815250507f6fbf53632084405d1cd011dec810cbe56f140abd41f72bcb5d27942219c66ddb816000015182602001518360400151846060015185608001518660a001518760c0015160405180888152602001806020018060200187815260200180602001861515151581526020018573ffffffffffffffffffffffffffffffffffffffff1673ffffffffffffffffffffffffffffffffffffffff16815260200184810384528a818151815260200191508051906020019080838360005b83811015613983578082015181840152602081019050613968565b50505050905090810190601f1680156139b05780820380516001836020036101000a031916815260200191505b50848103835289818151815260200191508051906020019080838360005b838110156139e95780820151818401526020810190506139ce565b50505050905090810190601f168015613a165780820380516001836020036101000a031916815260200191505b50848103825287818151815260200191508051906020019080838360005b83811015613a4f578082015181840152602081019050613a34565b50505050905090810190601f168015613a7c5780820380516001836020036101000a031916815260200191505b509a505050505050505050505060405180910390a150505050505050565b6000865111613b11576040517f08c379a00000000000000000000000000000000000000000000000000000000081526004018080602001828103825260108152602001807f4164642041204669727374204e616d650000000000000000000000000000000081525060200191505060405180910390fd5b6000855111613b88576040517f08c379a000000000000000000000000000000000000000000000000000000000815260040180806020018281038252600f8152602001807f4164642041204c617374204e616d65000000000000000000000000000000000081525060200191505060405180910390fd5b6000845111613bff576040517f08c379a00000000000000000000000000000000000000000000000000000000081526004018080602001828103825260188152602001807f41646420546865204e616d65204f6620427573696e657373000000000000000081525060200191505060405180910390fd5b6000835111613c76576040517f08c379a00000000000000000000000000000000000000000000000000000000081526004018080602001828103825260148152602001807f41646420416e20456d61696c206164647265737300000000000000000000000081525060200191505060405180910390fd5b6000825111613ced576040517f08c379a000000000000000000000000000000000000000000000000000000000815260040180806020018281038252601d8152602001807f4164642041204465736372697074696f6e204f6620427573696e65737300000081525060200191505060405180910390fd5b6000815111613d64576040517f08c379a00000000000000000000000000000000000000000000000000000000081526004018080602001828103825260198152602001807f41646420412041646472657373204f6620427573696e6573730000000000000081525060200191505060405180910390fd5b60016000815480929190600101919050555060405180610100016040528060015481526020018781526020018681526020018581526020018481526020018381526020018281526020013373ffffffffffffffffffffffffffffffffffffffff16815250600560006001548152602001908152602001600020600082015181600001556020820151816001019080519060200190613e03929190614330565b506040820151816002019080519060200190613e20929190614330565b506060820151816003019080519060200190613e3d929190614330565b506080820151816004019080519060200190613e5a929190614330565b5060a0820151816005019080519060200190613e77929190614330565b5060c0820151816006019080519060200190613e94929190614330565b5060e08201518160070160006101000a81548173ffffffffffffffffffffffffffffffffffffffff021916908373ffffffffffffffffffffffffffffffffffffffff1602179055509050507f7ca5f8e1cc04d20c5b1015445d5edc78e8d5725c97f982187cdb2172028c39be60015487878787878733604051808981526020018060200180602001806020018060200180602001806020018873ffffffffffffffffffffffffffffffffffffffff1673ffffffffffffffffffffffffffffffffffffffff16815260200187810387528e818151815260200191508051906020019080838360005b83811015613f96578082015181840152602081019050613f7b565b50505050905090810190601f168015613fc35780820380516001836020036101000a031916815260200191505b5087810386528d818151815260200191508051906020019080838360005b83811015613ffc578082015181840152602081019050613fe1565b50505050905090810190601f1680156140295780820380516001836020036101000a031916815260200191505b5087810385528c818151815260200191508051906020019080838360005b83811015614062578082015181840152602081019050614047565b50505050905090810190601f16801561408f5780820380516001836020036101000a031916815260200191505b5087810384528b818151815260200191508051906020019080838360005b838110156140c85780820151818401526020810190506140ad565b50505050905090810190601f1680156140f55780820380516001836020036101000a031916815260200191505b5087810383528a818151815260200191508051906020019080838360005b8381101561412e578082015181840152602081019050614113565b50505050905090810190601f16801561415b5780820380516001836020036101000a031916815260200191505b50878103825289818151815260200191508051906020019080838360005b83811015614194578082015181840152602081019050614179565b50505050905090810190601f1680156141c15780820380516001836020036101000a031916815260200191505b509e50505050505050505050505050505060405180910390a1505050505050565b60038054600181600116156101000203166002900480601f0160208091040260200160405190810160405280929190818152602001828054600181600116156101000203166002900480156142785780601f1061424d57610100808354040283529160200191614278565b820191906000526020600020905b81548152906001019060200180831161425b57829003601f168201915b505050505081565b60405180610100016040528060008152602001606081526020016060815260200160608152602001606081526020016060815260200160608152602001600073ffffffffffffffffffffffffffffffffffffffff1681525090565b6040518060e001604052806000815260200160608152602001606081526020016000815260200160608152602001600015158152602001600073ffffffffffffffffffffffffffffffffffffffff1681525090565b828054600181600116156101000203166002900490600052602060002090601f016020900481019282601f1061437157805160ff191683800117855561439f565b8280016001018555821561439f579182015b8281111561439e578251825591602001919060010190614383565b5b5090506143ac91906143b0565b5090565b6143d291905b808211156143ce5760008160009055506001016143b6565b5090565b9056fea265627a7a723158207772f6c28562af19206f641f70721b880215a5a36143891003deec85f99928fa64736f6c634300050c0032",
  "source": "pragma solidity ^0.5.0;\n\n\n/*\nSeller \n    - id\n    - first_name\n    - last_name\n    - name_of_business\n    - email_address\n    - description_of_business\nProduct \n    - id\n    - product_name\n    - product_price\n    - upload_image\n    - sold\n    - seller\n*/\ncontract ProductDapp{\n    uint public product_count= 0;\n    uint public seller_count=0;\n    string public dapp_name = \"DShop\"; // dapp name\n    string public dapp_builder = \"@GoodnessEzeokafor\";\n    mapping(uint => Product) public products;\n    mapping(uint => Seller) public sellers;\n\n\n\n    struct Product{\n        // Product structure\n        uint id;\n        string product_name;\n        string product_description;\n        uint product_price;\n        string upload_image;\n        bool sold;\n        address payable seller;\n    }\n\n\n    struct Seller{\n        // Seller Structure\n        uint id;\n        string first_name;\n        string last_name;\n        string name_of_business;\n        string email_address;\n        string description_of_business;\n        string business_address;\n        address seller_address;\n    }\n    /*\n    Events for consoling\n    */\n    event ProductCreated(\n        uint id,\n        string product_name,\n        string product_description,\n        uint product_price,\n        string upload_image,\n        bool sold,\n        address seller\n    );\n    event SellerCreated(\n        uint id,\n        string first_name,\n        string last_name,\n        string name_of_business,\n        string email_address,\n        string description_of_business,\n        string business_address,\n        address seller_address\n    );\n\n    event ProductUpdated(\n        uint id,\n        string product_name,\n        string product_description,\n        uint product_price,\n        string upload_image,\n        bool sold,\n        address  sellers\n    );\n\n    event SellerUpdated(\n        uint id,\n        string first_name,\n        string last_name,\n        string name_of_business,\n        string email_address,\n        string description_of_business,\n        string business_address,\n        address seller_address\n    );\n    /*\n    END EVENTS\n    */\n\n    function createSellerProfile(\n                            string memory _first_name,\n                            string memory _last_name,\n                            string memory _name_of_business,\n                            string memory _email_address,\n                            string memory _description_of_business,\n                            string memory _business_address\n                            )public{\n        require(bytes(_first_name).length > 0,\"Add A First Name\"); // First name's length is more than 0\n        require(bytes(_last_name).length > 0,\"Add A Last Name\"); // Last Name length is more than 0\n        require(bytes(_name_of_business).length > 0,\"Add The Name Of Business\"); // _name_of_business length is more than 0\n        require(bytes(_email_address).length > 0,\"Add An Email address\"); // _email_address length is more than 0\n        require(bytes(_description_of_business).length > 0,\"Add A Description Of Business\"); // _description_of_business length is more than 0\n        require(bytes(_business_address).length > 0,\"Add A Address Of Business\");  //\n        seller_count++;\n        sellers[seller_count]= Seller(\n            seller_count,\n            _first_name,\n            _last_name,\n            _name_of_business,\n            _email_address,\n            _description_of_business,\n            _business_address,\n            msg.sender\n        );\n        emit SellerCreated(\n            seller_count,\n            _first_name,\n            _last_name,\n            _name_of_business,\n            _email_address,\n            _description_of_business,\n            _business_address,\n            msg.sender\n        );\n\n    }\n\n    function updateSellerAccount(                   \n                            uint _id,       \n                            string memory _first_name,\n                            string memory _last_name,\n                            string memory _name_of_business,\n                            string memory _email_address,\n                            string memory _description_of_business,\n                            string memory _business_address,\n                            address _seller_address\n                            )public{\n        Seller memory s = sellers [_id];\n        s.first_name = _first_name;\n        s.last_name = _last_name;\n        s.name_of_business = _name_of_business;\n        s.email_address=_email_address;\n        s.description_of_business = _description_of_business;\n        s.business_address = _business_address;\n        s.seller_address = _seller_address;\n    }\n    //set single seller profile\n    function getSingleSeller(uint _id)public view returns(\n                                  uint id,\n                                  string memory,\n                                  string memory,\n                                  string memory,\n                                  string memory,\n                                  string memory,\n                                  string memory,\n                                  address\n    ){\n        Seller memory s = sellers [_id];\n        return (\n            s.id,\n            s.first_name,\n            s.last_name,\n            s.name_of_business,\n            s.email_address,\n            s.description_of_business,\n            s.business_address,\n            s.seller_address\n        );\n    }\n    // create product functionality\n    function createProduct(\n                        string memory _product_name,\n                        string memory _product_description,\n                        uint _product_price,\n                        string memory _upload_image\n                        )public{\n        require(bytes(_product_name).length > 0,\"Add A Product Name\"); // Product name's length is more than 0\n        require(bytes(_product_description).length > 0,\"Add A Product Description\"); // Product Description length is more than 0\n        require(bytes(_upload_image).length > 0,\"Add An Upload Image\"); // Upload Image length is more than 0\n        product_count++;\n        products[product_count]= Product(\n            product_count,\n            _product_name,\n            _product_description,\n            _product_price,\n            _upload_image,\n            false,\n            msg.sender\n        );\n        emit ProductCreated(\n            product_count,\n            _product_name,\n            _product_description,\n            _product_price,\n            _upload_image,\n            false,\n            msg.sender\n        );\n    }\n    // update product functionality\n\n    function updateProduct(\n                            uint _id,\n                            string memory _product_name,\n                            string memory _product_description,\n                            uint _product_price,\n                            string memory _upload_image,\n                            address payable _seller\n                            )public{\n        Product memory p = products[_id];\n        p.product_name = _product_name;\n        p.product_description=_product_description;\n        p.product_price = _product_price;\n        p.upload_image = _upload_image;\n        p.seller = _seller;\n        emit ProductUpdated(\n            p.id,\n            p.product_name,\n            p.product_description,\n            p.product_price,\n            p.upload_image,\n            p.sold,\n            p.seller    \n        );\n    }  \n  function get_single_product(uint _id)public view returns(\n                                  uint id,\n                                  string memory,\n                                  string memory,\n                                  uint,\n                                  string memory,\n                                  bool,\n                                 address                \n                                  ){\n     Product memory p = products [_id];\n        return (\n            p.id,\n            p.product_name,\n            p.product_description,\n            p.product_price,\n            p.upload_image,\n            p.sold,\n            p.seller\n        );\n  }\n\n    function buyProduct(uint _id) public payable{\n        // fetch the product\n                // Product memory p = products[_id];\n\n        Product memory _product = products[_id];\n        // fetch the owner\n        address payable _seller = _product.seller;\n        // make sure the product is is valid\n        require(_product.id > 0 && _product.id <= product_count,\"NOT A PRODUCT ID\");\n        // require that there is enough Ether in the transaction\n        require(msg.value >= _product.product_price,\"You Don't Have Enough Ether\");\n        // require that the product has not been purchased\n        require(!_product.sold,\"PRODUCT ALREADY PURCHASED\");\n        // require that the buyer is not the seller\n        require(_seller != msg.sender,\"Seller Can't Purchase His Item\");\n        // transfer ownership\n        // _product.owner = msg.sender;\n        // mark as purchased\n        _product.sold = true;\n        //update the product\n        products[_id] = _product;\n        // pay the seller by paying them ether\n        address(_seller).transfer(msg.value); \n        // trigger an event\n    }\n\n}\n\n",
  "sourcePath": "/home/goodness/Development/ethereum/chinaza-project/client/contracts/ProductDapp.sol",
  "compiler": {
    "name": "solc",
    "version": "0.5.12+commit.7709ece9.Emscripten.clang"
  },
  "schemaVersion": "3.0.19",
  "updatedAt": "2019-12-03T23:48:30.279Z",
  "networkType": "ethereum",
  "devdoc": {
    "methods": {}
  },
  "userdoc": {
    "methods": {}
  }
}